{
  "contractName": "PubsubContract",
  "abi": [
    {
      "constant": true,
      "inputs": [
        {
          "name": "",
          "type": "uint256"
        }
      ],
      "name": "subscriptions",
      "outputs": [
        {
          "name": "UserName",
          "type": "bytes32"
        },
        {
          "name": "Topic",
          "type": "bytes32"
        },
        {
          "name": "MailId",
          "type": "bytes32"
        }
      ],
      "payable": false,
      "stateMutability": "view",
      "type": "function"
    },
    {
      "constant": false,
      "inputs": [
        {
          "name": "_UserName",
          "type": "bytes32"
        },
        {
          "name": "_Topic",
          "type": "bytes32"
        },
        {
          "name": "_MailId",
          "type": "bytes32"
        }
      ],
      "name": "addSubscription",
      "outputs": [
        {
          "name": "success",
          "type": "bool"
        }
      ],
      "payable": false,
      "stateMutability": "nonpayable",
      "type": "function"
    }
  ],
  "bytecode": "0x6060604052341561000f57600080fd5b6102af8061001e6000396000f30060606040526004361061004c576000357c0100000000000000000000000000000000000000000000000000000000900463ffffffff1680632d5bbf60146100515780633dfaa86c146100ae575b600080fd5b341561005c57600080fd5b6100726004808035906020019091905050610107565b60405180846000191660001916815260200183600019166000191681526020018260001916600019168152602001935050505060405180910390f35b34156100b957600080fd5b6100ed6004808035600019169060200190919080356000191690602001909190803560001916906020019091905050610140565b604051808215151515815260200191505060405180910390f35b60008181548110151561011657fe5b90600052602060002090600302016000915090508060000154908060010154908060020154905083565b600061014a6101ef565b8481600001906000191690816000191681525050838160200190600019169081600019168152505082816040019060001916908160001916815250506000805480600101828161019a919061021a565b9160005260206000209060030201600083909190915060008201518160000190600019169055602082015181600101906000191690556040820151816002019060001916905550505060019150509392505050565b6060604051908101604052806000801916815260200160008019168152602001600080191681525090565b81548183558181151161024757600302816003028360005260206000209182019101610246919061024c565b5b505050565b61028091905b8082111561027c576000808201600090556001820160009055600282016000905550600301610252565b5090565b905600a165627a7a7230582018b2e001f3e09141a1c0304ca75818da2f90a5dc0eb827a34a282390a6bd70d40029",
  "source": "pragma solidity ^0.4.0;\n\n\ncontract PubsubContract {\n\n    Subscription[] public subscriptions;\n\n    struct Subscription{\n        bytes32 UserName;\n        bytes32 Topic;\n        bytes32 MailId;\n    }\n\n    function addSubscription(bytes32 _UserName, bytes32 _Topic, bytes32 _MailId) returns (bool success){\n        Subscription memory newSubscription;\n        newSubscription.UserName = _UserName;\n        newSubscription.Topic = _Topic;\n        newSubscription.MailId = _MailId;\n        subscriptions.push(newSubscription);\n        return true;\n    }\n}\n",
  "sourcePath": "/home/nagendra/solidity/Pubsubhandle/contracts/PubsubContract.sol",
  "compiler": {
    "name": "solc",
    "version": "0.4.18+commit.9cf6e910.Emscripten.clang"
  },
  "schemaVersion": "1.0.1",
  "updatedAt": "2017-11-16T08:38:50.680Z"
}