{
  "contractName": "PubsubContract",
  "abi": [
    {
      "constant": true,
      "inputs": [
        {
          "name": "",
          "type": "uint256"
        }
      ],
      "name": "getSubscriptionDetails",
      "outputs": [
        {
          "name": "",
          "type": "bytes32[]"
        },
        {
          "name": "",
          "type": "bytes32[]"
        },
        {
          "name": "",
          "type": "bytes32[]"
        }
      ],
      "payable": false,
      "stateMutability": "view",
      "type": "function"
    },
    {
      "constant": true,
      "inputs": [
        {
          "name": "",
          "type": "uint256"
        },
        {
          "name": "_Topic",
          "type": "bytes32"
        },
        {
          "name": "_MailId",
          "type": "bytes32"
        }
      ],
      "name": "subscriptions",
      "outputs": [
        {
          "name": "UserName",
          "type": "bytes32"
        },
        {
          "name": "Topic",
          "type": "bytes32"
        },
        {
          "name": "MailId",
          "type": "bytes32"
        }
      ],
      "payable": false,
      "stateMutability": "view",
      "type": "function"
    },
    {
      "constant": false,
      "inputs": [
        {
          "name": "_UserName",
          "type": "bytes32"
        },
        {
          "name": "_Topic",
          "type": "bytes32"
        },
        {
          "name": "_MailId",
          "type": "bytes32"
        }
      ],
      "name": "addSubscription",
      "outputs": [
        {
          "name": "success",
          "type": "bool"
        }
      ],
      "payable": false,
      "stateMutability": "nonpayable",
      "type": "function"
    }
  ],
  "bytecode": "0x6060604052341561000f57600080fd5b6105848061001e6000396000f300606060405260043610610057576000357c0100000000000000000000000000000000000000000000000000000000900463ffffffff1680630d5de6df1461005c5780632d5bbf60146101565780633dfaa86c146101b3575b600080fd5b341561006757600080fd5b61006f61020c565b60405180806020018060200180602001848103845287818151815260200191508051906020019060200280838360005b838110156100ba57808201518184015260208101905061009f565b50505050905001848103835286818151815260200191508051906020019060200280838360005b838110156100fc5780820151818401526020810190506100e1565b50505050905001848103825285818151815260200191508051906020019060200280838360005b8381101561013e578082015181840152602081019050610123565b50505050905001965050505050505060405180910390f35b341561016157600080fd5b61017760048080359060200190919050506103c8565b60405180846000191660001916815260200183600019166000191681526020018260001916600019168152602001935050505060405180910390f35b34156101be57600080fd5b6101f26004808035600019169060200190919080356000191690602001909190803560001916906020019091905050610401565b604051808215151515815260200191505060405180910390f35b6102146104b0565b61021c6104b0565b6102246104b0565b600061022e6104b0565b6102366104b0565b61023e6104b0565b60006102486104c4565b60008054905095508560405180591061025e5750595b908082528060200260200182016040525094508560405180591061027f5750595b90808252806020026020018201604052509350856040518059106102a05750595b90808252806020026020018201604052509250600091505b6000805490508210156103b4576000828154811015156102d457fe5b906000526020600020906003020160606040519081016040529081600082015460001916600019168152602001600182015460001916600019168152602001600282015460001916600019168152505090508060000151858381518110151561033957fe5b9060200190602002019060001916908160001916815250508060200151848381518110151561036457fe5b9060200190602002019060001916908160001916815250508060400151838381518110151561038f57fe5b90602001906020020190600019169081600019168152505081806001019250506102b8565b848484985098509850505050505050909192565b6000818154811015156103d757fe5b90600052602060002090600302016000915090508060000154908060010154908060020154905083565b600061040b6104c4565b8481600001906000191690816000191681525050838160200190600019169081600019168152505082816040019060001916908160001916815250506000805480600101828161045b91906104ef565b9160005260206000209060030201600083909190915060008201518160000190600019169055602082015181600101906000191690556040820151816002019060001916905550505060019150509392505050565b602060405190810160405280600081525090565b6060604051908101604052806000801916815260200160008019168152602001600080191681525090565b81548183558181151161051c5760030281600302836000526020600020918201910161051b9190610521565b5b505050565b61055591905b80821115610551576000808201600090556001820160009055600282016000905550600301610527565b5090565b905600a165627a7a72305820d32722a8310f34966921beb61cbf38b76d694dcdacfe16e92f1e665d61acce930029",
  "source": "pragma solidity ^0.4.0;\n\n\ncontract PubsubContract {\n\n    Subscription[] public subscriptions;\n\n    struct Subscription{\n        bytes32 UserName;\n        bytes32 Topic;\n        bytes32 MailId;\n    }\n\n    function addSubscription(bytes32 _UserName, bytes32 _Topic, bytes32 _MailId) returns (bool success){\n        Subscription memory newSubscription;\n        newSubscription.UserName = _UserName;\n        newSubscription.Topic = _Topic;\n        newSubscription.MailId = _MailId;\n        subscriptions.push(newSubscription);\n        return true;\n    }\n\n    function getSubscriptionDetails() constant returns(bytes32[], bytes32[], bytes32[]){\n\n        uint length = subscriptions.length;\n\n        bytes32[] memory usernames = new bytes32[](length);\n        bytes32[] memory topics = new bytes32[](length);\n        bytes32[] memory mailids = new bytes32[](length);\n\n        for(uint i=0; i < subscriptions.length; i++){\n            Subscription memory currentSubscription;\n\n            currentSubscription = subscriptions[i];\n\n            usernames[i] = currentSubscription.UserName;\n            topics[i] = currentSubscription.Topic;\n            mailids[i] = currentSubscription.MailId;\n        }\n\n        return (usernames,topics,mailids);\n    }\n}\n",
  "sourcePath": "/home/nagendra/solidity/Pubsubhandle/contracts/PubsubContract.sol",
  "compiler": {
    "name": "solc",
    "version": "0.4.18+commit.9cf6e910.Emscripten.clang"
  },
  "schemaVersion": "1.0.1",
  "updatedAt": "2017-11-16T10:47:43.883Z"
}